{
  "_format": "hh-sol-artifact-1",
  "contractName": "Dbank",
  "sourceName": "contracts/Dbank.sol",
  "abi": [
    {
      "inputs": [],
      "stateMutability": "nonpayable",
      "type": "constructor"
    },
    {
      "anonymous": false,
      "inputs": [
        {
          "indexed": true,
          "internalType": "address",
          "name": "user",
          "type": "address"
        },
        {
          "indexed": false,
          "internalType": "uint256",
          "name": "amount",
          "type": "uint256"
        }
      ],
      "name": "DepositMade",
      "type": "event"
    },
    {
      "anonymous": false,
      "inputs": [
        {
          "indexed": true,
          "internalType": "address",
          "name": "from",
          "type": "address"
        },
        {
          "indexed": true,
          "internalType": "address",
          "name": "to",
          "type": "address"
        },
        {
          "indexed": false,
          "internalType": "uint256",
          "name": "amount",
          "type": "uint256"
        }
      ],
      "name": "FundsTransfered",
      "type": "event"
    },
    {
      "anonymous": false,
      "inputs": [
        {
          "indexed": true,
          "internalType": "address",
          "name": "user",
          "type": "address"
        },
        {
          "indexed": false,
          "internalType": "uint256",
          "name": "amount",
          "type": "uint256"
        }
      ],
      "name": "MoneyWithdrawn",
      "type": "event"
    },
    {
      "stateMutability": "payable",
      "type": "fallback"
    },
    {
      "inputs": [
        {
          "internalType": "string",
          "name": "_name",
          "type": "string"
        }
      ],
      "name": "DepositMoney",
      "outputs": [],
      "stateMutability": "payable",
      "type": "function"
    },
    {
      "inputs": [],
      "name": "MIN_DEPOSIT",
      "outputs": [
        {
          "internalType": "uint256",
          "name": "",
          "type": "uint256"
        }
      ],
      "stateMutability": "view",
      "type": "function"
    },
    {
      "inputs": [
        {
          "internalType": "uint256",
          "name": "amount",
          "type": "uint256"
        },
        {
          "internalType": "address",
          "name": "_to",
          "type": "address"
        }
      ],
      "name": "Transfer",
      "outputs": [],
      "stateMutability": "nonpayable",
      "type": "function"
    },
    {
      "inputs": [],
      "name": "checkBalance",
      "outputs": [
        {
          "internalType": "uint256",
          "name": "",
          "type": "uint256"
        }
      ],
      "stateMutability": "view",
      "type": "function"
    },
    {
      "inputs": [
        {
          "internalType": "address",
          "name": "",
          "type": "address"
        }
      ],
      "name": "deposits",
      "outputs": [
        {
          "internalType": "uint256",
          "name": "amount",
          "type": "uint256"
        },
        {
          "internalType": "string",
          "name": "name",
          "type": "string"
        },
        {
          "internalType": "uint256",
          "name": "depositTime",
          "type": "uint256"
        }
      ],
      "stateMutability": "view",
      "type": "function"
    },
    {
      "inputs": [],
      "name": "owner",
      "outputs": [
        {
          "internalType": "address",
          "name": "",
          "type": "address"
        }
      ],
      "stateMutability": "view",
      "type": "function"
    },
    {
      "inputs": [
        {
          "internalType": "uint256",
          "name": "amount",
          "type": "uint256"
        }
      ],
      "name": "withdraw",
      "outputs": [],
      "stateMutability": "nonpayable",
      "type": "function"
    },
    {
      "stateMutability": "payable",
      "type": "receive"
    }
  ],
  "bytecode": "0x60a060405234801561001057600080fd5b503373ffffffffffffffffffffffffffffffffffffffff1660808173ffffffffffffffffffffffffffffffffffffffff168152505060805161148d610060600039600061054d015261148d6000f3fe6080604052600436106100745760003560e01c8063c71daccb1161004e578063c71daccb14610242578063e1e158a51461026d578063f255a2ea14610298578063fc7e286d146102b45761011f565b80632e1a7d4d146101c55780638da5cb5b146101ee578063abe1dcf9146102195761011f565b3661011f5734600260003373ffffffffffffffffffffffffffffffffffffffff1673ffffffffffffffffffffffffffffffffffffffff16815260200190815260200160002060008282546100c89190610ad7565b925050819055503373ffffffffffffffffffffffffffffffffffffffff167fd15c9547ea5c06670c0010ce19bc32d54682a4b3801ece7f3ab0c3f17106b4bb346040516101159190610b1a565b60405180910390a2005b34600260003373ffffffffffffffffffffffffffffffffffffffff1673ffffffffffffffffffffffffffffffffffffffff168152602001908152602001600020600082825461016e9190610ad7565b925050819055503373ffffffffffffffffffffffffffffffffffffffff167fd15c9547ea5c06670c0010ce19bc32d54682a4b3801ece7f3ab0c3f17106b4bb346040516101bb9190610b1a565b60405180910390a2005b3480156101d157600080fd5b506101ec60048036038101906101e79190610b75565b6102f3565b005b3480156101fa57600080fd5b5061020361054b565b6040516102109190610be3565b60405180910390f35b34801561022557600080fd5b50610240600480360381019061023b9190610c2a565b61056f565b005b34801561024e57600080fd5b50610257610822565b6040516102649190610b1a565b60405180910390f35b34801561027957600080fd5b50610282610869565b60405161028f9190610b1a565b60405180910390f35b6102b260048036038101906102ad9190610db0565b610874565b005b3480156102c057600080fd5b506102db60048036038101906102d69190610df9565b6109ec565b6040516102ea93929190610ea5565b60405180910390f35b60008054906101000a900460ff1615610341576040517f08c379a000000000000000000000000000000000000000000000000000000000815260040161033890610f2f565b60405180910390fd5b60016000806101000a81548160ff02191690831515021790555080600260003373ffffffffffffffffffffffffffffffffffffffff1673ffffffffffffffffffffffffffffffffffffffff1681526020019081526020016000205410156103dd576040517f08c379a00000000000000000000000000000000000000000000000000000000081526004016103d490610f9b565b60405180910390fd5b80600260003373ffffffffffffffffffffffffffffffffffffffff1673ffffffffffffffffffffffffffffffffffffffff168152602001908152602001600020600082825461042c9190610fbb565b9250508190555060003373ffffffffffffffffffffffffffffffffffffffff168260405161045990611020565b60006040518083038185875af1925050503d8060008114610496576040519150601f19603f3d011682016040523d82523d6000602084013e61049b565b606091505b50509050806104df576040517f08c379a00000000000000000000000000000000000000000000000000000000081526004016104d690611081565b60405180910390fd5b3373ffffffffffffffffffffffffffffffffffffffff167fe020566b3b7b0c11a72c9a01a70122b5bb1e70d24128480342bad5367fbf54e2836040516105259190610b1a565b60405180910390a25060008060006101000a81548160ff02191690831515021790555050565b7f000000000000000000000000000000000000000000000000000000000000000081565b600073ffffffffffffffffffffffffffffffffffffffff168173ffffffffffffffffffffffffffffffffffffffff16036105de576040517f08c379a00000000000000000000000000000000000000000000000000000000081526004016105d5906110ed565b60405180910390fd5b81600260003373ffffffffffffffffffffffffffffffffffffffff1673ffffffffffffffffffffffffffffffffffffffff168152602001908152602001600020541015610660576040517f08c379a000000000000000000000000000000000000000000000000000000000815260040161065790610f9b565b60405180910390fd5b81600260003373ffffffffffffffffffffffffffffffffffffffff1673ffffffffffffffffffffffffffffffffffffffff16815260200190815260200160002060008282546106af9190610fbb565b9250508190555081600260008373ffffffffffffffffffffffffffffffffffffffff1673ffffffffffffffffffffffffffffffffffffffff16815260200190815260200160002060008282546107059190610ad7565b9250508190555060008173ffffffffffffffffffffffffffffffffffffffff168360405161073290611020565b60006040518083038185875af1925050503d806000811461076f576040519150601f19603f3d011682016040523d82523d6000602084013e610774565b606091505b50509050806107b8576040517f08c379a00000000000000000000000000000000000000000000000000000000081526004016107af90611081565b60405180910390fd5b8173ffffffffffffffffffffffffffffffffffffffff163373ffffffffffffffffffffffffffffffffffffffff167f39a0364de1ca3fa0ba78d2a93e9a0f6886d7eca773c99a3cfe87381708b7eec8856040516108159190610b1a565b60405180910390a3505050565b6000600260003373ffffffffffffffffffffffffffffffffffffffff1673ffffffffffffffffffffffffffffffffffffffff16815260200190815260200160002054905090565b662386f26fc1000081565b662386f26fc100003410156108be576040517f08c379a00000000000000000000000000000000000000000000000000000000081526004016108b590611159565b60405180910390fd5b34600260003373ffffffffffffffffffffffffffffffffffffffff1673ffffffffffffffffffffffffffffffffffffffff168152602001908152602001600020600082825461090d9190610ad7565b92505081905550604051806060016040528034815260200182815260200142815250600160003373ffffffffffffffffffffffffffffffffffffffff1673ffffffffffffffffffffffffffffffffffffffff16815260200190815260200160002060008201518160000155602082015181600101908161098d9190611385565b50604082015181600201559050503373ffffffffffffffffffffffffffffffffffffffff167fd15c9547ea5c06670c0010ce19bc32d54682a4b3801ece7f3ab0c3f17106b4bb346040516109e19190610b1a565b60405180910390a250565b6001602052806000526040600020600091509050806000015490806001018054610a15906111a8565b80601f0160208091040260200160405190810160405280929190818152602001828054610a41906111a8565b8015610a8e5780601f10610a6357610100808354040283529160200191610a8e565b820191906000526020600020905b815481529060010190602001808311610a7157829003601f168201915b5050505050908060020154905083565b6000819050919050565b7f4e487b7100000000000000000000000000000000000000000000000000000000600052601160045260246000fd5b6000610ae282610a9e565b9150610aed83610a9e565b9250828201905080821115610b0557610b04610aa8565b5b92915050565b610b1481610a9e565b82525050565b6000602082019050610b2f6000830184610b0b565b92915050565b6000604051905090565b600080fd5b600080fd5b610b5281610a9e565b8114610b5d57600080fd5b50565b600081359050610b6f81610b49565b92915050565b600060208284031215610b8b57610b8a610b3f565b5b6000610b9984828501610b60565b91505092915050565b600073ffffffffffffffffffffffffffffffffffffffff82169050919050565b6000610bcd82610ba2565b9050919050565b610bdd81610bc2565b82525050565b6000602082019050610bf86000830184610bd4565b92915050565b610c0781610bc2565b8114610c1257600080fd5b50565b600081359050610c2481610bfe565b92915050565b60008060408385031215610c4157610c40610b3f565b5b6000610c4f85828601610b60565b9250506020610c6085828601610c15565b9150509250929050565b600080fd5b600080fd5b6000601f19601f8301169050919050565b7f4e487b7100000000000000000000000000000000000000000000000000000000600052604160045260246000fd5b610cbd82610c74565b810181811067ffffffffffffffff82111715610cdc57610cdb610c85565b5b80604052505050565b6000610cef610b35565b9050610cfb8282610cb4565b919050565b600067ffffffffffffffff821115610d1b57610d1a610c85565b5b610d2482610c74565b9050602081019050919050565b82818337600083830152505050565b6000610d53610d4e84610d00565b610ce5565b905082815260208101848484011115610d6f57610d6e610c6f565b5b610d7a848285610d31565b509392505050565b600082601f830112610d9757610d96610c6a565b5b8135610da7848260208601610d40565b91505092915050565b600060208284031215610dc657610dc5610b3f565b5b600082013567ffffffffffffffff811115610de457610de3610b44565b5b610df084828501610d82565b91505092915050565b600060208284031215610e0f57610e0e610b3f565b5b6000610e1d84828501610c15565b91505092915050565b600081519050919050565b600082825260208201905092915050565b60005b83811015610e60578082015181840152602081019050610e45565b60008484015250505050565b6000610e7782610e26565b610e818185610e31565b9350610e91818560208601610e42565b610e9a81610c74565b840191505092915050565b6000606082019050610eba6000830186610b0b565b8181036020830152610ecc8185610e6c565b9050610edb6040830184610b0b565b949350505050565b7f7265656e7472616e637920646574656374656400000000000000000000000000600082015250565b6000610f19601383610e31565b9150610f2482610ee3565b602082019050919050565b60006020820190508181036000830152610f4881610f0c565b9050919050565b7f696e73756666696369656e7420616d6f756e7400000000000000000000000000600082015250565b6000610f85601383610e31565b9150610f9082610f4f565b602082019050919050565b60006020820190508181036000830152610fb481610f78565b9050919050565b6000610fc682610a9e565b9150610fd183610a9e565b9250828203905081811115610fe957610fe8610aa8565b5b92915050565b600081905092915050565b50565b600061100a600083610fef565b915061101582610ffa565b600082019050919050565b600061102b82610ffd565b9150819050919050565b7f5472616e73666572206661696c65640000000000000000000000000000000000600082015250565b600061106b600f83610e31565b915061107682611035565b602082019050919050565b6000602082019050818103600083015261109a8161105e565b9050919050565b7f496e76616c696420726563697069656e74206164647265737300000000000000600082015250565b60006110d7601983610e31565b91506110e2826110a1565b602082019050919050565b60006020820190508181036000830152611106816110ca565b9050919050565b7f6d757374206465706f73697420736f6d652062616c616e636500000000000000600082015250565b6000611143601983610e31565b915061114e8261110d565b602082019050919050565b6000602082019050818103600083015261117281611136565b9050919050565b7f4e487b7100000000000000000000000000000000000000000000000000000000600052602260045260246000fd5b600060028204905060018216806111c057607f821691505b6020821081036111d3576111d2611179565b5b50919050565b60008190508160005260206000209050919050565b60006020601f8301049050919050565b600082821b905092915050565b60006008830261123b7fffffffffffffffffffffffffffffffffffffffffffffffffffffffffffffffff826111fe565b61124586836111fe565b95508019841693508086168417925050509392505050565b6000819050919050565b600061128261127d61127884610a9e565b61125d565b610a9e565b9050919050565b6000819050919050565b61129c83611267565b6112b06112a882611289565b84845461120b565b825550505050565b600090565b6112c56112b8565b6112d0818484611293565b505050565b5b818110156112f4576112e96000826112bd565b6001810190506112d6565b5050565b601f8211156113395761130a816111d9565b611313846111ee565b81016020851015611322578190505b61133661132e856111ee565b8301826112d5565b50505b505050565b600082821c905092915050565b600061135c6000198460080261133e565b1980831691505092915050565b6000611375838361134b565b9150826002028217905092915050565b61138e82610e26565b67ffffffffffffffff8111156113a7576113a6610c85565b5b6113b182546111a8565b6113bc8282856112f8565b600060209050601f8311600181146113ef57600084156113dd578287015190505b6113e78582611369565b86555061144f565b601f1984166113fd866111d9565b60005b8281101561142557848901518255600182019150602085019450602081019050611400565b86831015611442578489015161143e601f89168261134b565b8355505b6001600288020188555050505b50505050505056fea2646970667358221220e815110616f33fbf14f67ba216290e14aea98f301d8ab1a5f6b2099c2429738f64736f6c63430008130033",
  "linkReferences": {},
  "deployedLinkReferences": {}
}