{
  "_format": "hh-sol-artifact-1",
  "contractName": "Dbank",
  "sourceName": "contracts/Dbank.sol",
  "abi": [
    {
      "inputs": [],
      "stateMutability": "nonpayable",
      "type": "constructor"
    },
    {
      "anonymous": false,
      "inputs": [
        {
          "indexed": true,
          "internalType": "address",
          "name": "user",
          "type": "address"
        },
        {
          "indexed": false,
          "internalType": "uint256",
          "name": "amount",
          "type": "uint256"
        },
        {
          "indexed": false,
          "internalType": "string",
          "name": "name",
          "type": "string"
        }
      ],
      "name": "DepositMade",
      "type": "event"
    },
    {
      "anonymous": false,
      "inputs": [
        {
          "indexed": true,
          "internalType": "address",
          "name": "from",
          "type": "address"
        },
        {
          "indexed": true,
          "internalType": "address",
          "name": "to",
          "type": "address"
        },
        {
          "indexed": false,
          "internalType": "uint256",
          "name": "amount",
          "type": "uint256"
        }
      ],
      "name": "FundsTransferred",
      "type": "event"
    },
    {
      "anonymous": false,
      "inputs": [
        {
          "indexed": true,
          "internalType": "address",
          "name": "user",
          "type": "address"
        },
        {
          "indexed": false,
          "internalType": "uint256",
          "name": "amount",
          "type": "uint256"
        }
      ],
      "name": "WithdrawalCompleted",
      "type": "event"
    },
    {
      "anonymous": false,
      "inputs": [
        {
          "indexed": true,
          "internalType": "address",
          "name": "user",
          "type": "address"
        },
        {
          "indexed": false,
          "internalType": "uint256",
          "name": "amount",
          "type": "uint256"
        },
        {
          "indexed": false,
          "internalType": "uint256",
          "name": "requestTime",
          "type": "uint256"
        }
      ],
      "name": "WithdrawalRequested",
      "type": "event"
    },
    {
      "stateMutability": "payable",
      "type": "fallback"
    },
    {
      "inputs": [
        {
          "internalType": "string",
          "name": "_name",
          "type": "string"
        }
      ],
      "name": "DepositMoney",
      "outputs": [],
      "stateMutability": "payable",
      "type": "function"
    },
    {
      "inputs": [],
      "name": "MIN_DEPOSIT",
      "outputs": [
        {
          "internalType": "uint256",
          "name": "",
          "type": "uint256"
        }
      ],
      "stateMutability": "view",
      "type": "function"
    },
    {
      "inputs": [
        {
          "internalType": "uint256",
          "name": "amount",
          "type": "uint256"
        }
      ],
      "name": "Reqwithdraw",
      "outputs": [],
      "stateMutability": "nonpayable",
      "type": "function"
    },
    {
      "inputs": [
        {
          "internalType": "uint256",
          "name": "amount",
          "type": "uint256"
        },
        {
          "internalType": "address",
          "name": "_to",
          "type": "address"
        }
      ],
      "name": "TransferMoney",
      "outputs": [],
      "stateMutability": "nonpayable",
      "type": "function"
    },
    {
      "inputs": [
        {
          "internalType": "address",
          "name": "",
          "type": "address"
        }
      ],
      "name": "balances",
      "outputs": [
        {
          "internalType": "uint256",
          "name": "",
          "type": "uint256"
        }
      ],
      "stateMutability": "view",
      "type": "function"
    },
    {
      "inputs": [],
      "name": "checkBalance",
      "outputs": [
        {
          "internalType": "uint256",
          "name": "",
          "type": "uint256"
        }
      ],
      "stateMutability": "view",
      "type": "function"
    },
    {
      "inputs": [],
      "name": "checkpendings",
      "outputs": [
        {
          "internalType": "uint256",
          "name": "",
          "type": "uint256"
        }
      ],
      "stateMutability": "view",
      "type": "function"
    },
    {
      "inputs": [],
      "name": "claimWithdraw",
      "outputs": [],
      "stateMutability": "nonpayable",
      "type": "function"
    },
    {
      "inputs": [
        {
          "internalType": "address",
          "name": "",
          "type": "address"
        },
        {
          "internalType": "uint256",
          "name": "",
          "type": "uint256"
        }
      ],
      "name": "deposits",
      "outputs": [
        {
          "internalType": "uint256",
          "name": "amount",
          "type": "uint256"
        },
        {
          "internalType": "string",
          "name": "name",
          "type": "string"
        },
        {
          "internalType": "uint256",
          "name": "depositTime",
          "type": "uint256"
        }
      ],
      "stateMutability": "view",
      "type": "function"
    },
    {
      "inputs": [],
      "name": "getAllDepositss",
      "outputs": [
        {
          "components": [
            {
              "internalType": "uint256",
              "name": "amount",
              "type": "uint256"
            },
            {
              "internalType": "string",
              "name": "name",
              "type": "string"
            },
            {
              "internalType": "uint256",
              "name": "depositTime",
              "type": "uint256"
            }
          ],
          "internalType": "struct Dbank.Deposit[]",
          "name": "",
          "type": "tuple[]"
        }
      ],
      "stateMutability": "view",
      "type": "function"
    },
    {
      "inputs": [],
      "name": "getAllWithdraws",
      "outputs": [
        {
          "components": [
            {
              "internalType": "uint256",
              "name": "amount",
              "type": "uint256"
            },
            {
              "internalType": "uint256",
              "name": "wthdrawTime",
              "type": "uint256"
            }
          ],
          "internalType": "struct Dbank.Withdraw[]",
          "name": "",
          "type": "tuple[]"
        }
      ],
      "stateMutability": "view",
      "type": "function"
    },
    {
      "inputs": [],
      "name": "getAlltransfers",
      "outputs": [
        {
          "components": [
            {
              "internalType": "uint256",
              "name": "amount",
              "type": "uint256"
            },
            {
              "internalType": "address",
              "name": "receiver",
              "type": "address"
            },
            {
              "internalType": "uint256",
              "name": "depositTime",
              "type": "uint256"
            }
          ],
          "internalType": "struct Dbank.Transfer[]",
          "name": "",
          "type": "tuple[]"
        }
      ],
      "stateMutability": "view",
      "type": "function"
    },
    {
      "inputs": [
        {
          "internalType": "address",
          "name": "",
          "type": "address"
        }
      ],
      "name": "lastWithdrawls",
      "outputs": [
        {
          "internalType": "uint256",
          "name": "",
          "type": "uint256"
        }
      ],
      "stateMutability": "view",
      "type": "function"
    },
    {
      "inputs": [],
      "name": "owner",
      "outputs": [
        {
          "internalType": "address",
          "name": "",
          "type": "address"
        }
      ],
      "stateMutability": "view",
      "type": "function"
    },
    {
      "inputs": [
        {
          "internalType": "address",
          "name": "",
          "type": "address"
        }
      ],
      "name": "pendingPayments",
      "outputs": [
        {
          "internalType": "uint256",
          "name": "amount",
          "type": "uint256"
        },
        {
          "internalType": "uint256",
          "name": "requestTime",
          "type": "uint256"
        },
        {
          "internalType": "bool",
          "name": "isPending",
          "type": "bool"
        }
      ],
      "stateMutability": "view",
      "type": "function"
    },
    {
      "inputs": [
        {
          "internalType": "address",
          "name": "",
          "type": "address"
        },
        {
          "internalType": "uint256",
          "name": "",
          "type": "uint256"
        }
      ],
      "name": "tranfers",
      "outputs": [
        {
          "internalType": "uint256",
          "name": "amount",
          "type": "uint256"
        },
        {
          "internalType": "address",
          "name": "receiver",
          "type": "address"
        },
        {
          "internalType": "uint256",
          "name": "depositTime",
          "type": "uint256"
        }
      ],
      "stateMutability": "view",
      "type": "function"
    },
    {
      "inputs": [
        {
          "internalType": "address",
          "name": "",
          "type": "address"
        },
        {
          "internalType": "uint256",
          "name": "",
          "type": "uint256"
        }
      ],
      "name": "withdraws",
      "outputs": [
        {
          "internalType": "uint256",
          "name": "amount",
          "type": "uint256"
        },
        {
          "internalType": "uint256",
          "name": "wthdrawTime",
          "type": "uint256"
        }
      ],
      "stateMutability": "view",
      "type": "function"
    },
    {
      "stateMutability": "payable",
      "type": "receive"
    }
  ],
  "bytecode": "0x60a0604052600160075534801561001557600080fd5b503373ffffffffffffffffffffffffffffffffffffffff1660808173ffffffffffffffffffffffffffffffffffffffff168152505060016007819055506080516126c561006d6000396000610b7d01526126c56000f3fe6080604052600436106101015760003560e01c80638da5cb5b11610095578063c71daccb11610064578063c71daccb146103ec578063d15801e114610417578063d6d6817714610455578063e1e158a514610494578063f255a2ea146104bf5761015d565b80638da5cb5b146103325780638dfbd7831461035d5780638fdb1d171461038657806399ce610a146103af5761015d565b80632cdd0b3c116100d15780632cdd0b3c1461025e5780635906fa191461029d5780635de4255c146102c85780637f38e526146102f35761015d565b8062f1c4f5146101b45780630e8584aa146101df578063120ec96c146101f657806327e235e3146102215761015d565b3661015d5734600460003373ffffffffffffffffffffffffffffffffffffffff1673ffffffffffffffffffffffffffffffffffffffff168152602001908152602001600020600082825461015591906115fc565b925050819055005b34600460003373ffffffffffffffffffffffffffffffffffffffff1673ffffffffffffffffffffffffffffffffffffffff16815260200190815260200160002060008282546101ac91906115fc565b925050819055005b3480156101c057600080fd5b506101c96104db565b6040516101d6919061163f565b60405180910390f35b3480156101eb57600080fd5b506101f4610525565b005b34801561020257600080fd5b5061020b6107cd565b6040516102189190611747565b60405180910390f35b34801561022d57600080fd5b50610248600480360381019061024391906117db565b61087d565b604051610255919061163f565b60405180910390f35b34801561026a57600080fd5b5061028560048036038101906102809190611834565b610895565b60405161029493929190611883565b60405180910390f35b3480156102a957600080fd5b506102b26108fc565b6040516102bf91906119ba565b60405180910390f35b3480156102d457600080fd5b506102dd610a02565b6040516102ea9190611b7e565b60405180910390f35b3480156102ff57600080fd5b5061031a600480360381019061031591906117db565b610b44565b60405161032993929190611bbb565b60405180910390f35b34801561033e57600080fd5b50610347610b7b565b6040516103549190611bf2565b60405180910390f35b34801561036957600080fd5b50610384600480360381019061037f9190611c0d565b610b9f565b005b34801561039257600080fd5b506103ad60048036038101906103a89190611c3a565b610f19565b005b3480156103bb57600080fd5b506103d660048036038101906103d191906117db565b61129b565b6040516103e3919061163f565b60405180910390f35b3480156103f857600080fd5b506104016112b3565b60405161040e919061163f565b60405180910390f35b34801561042357600080fd5b5061043e60048036038101906104399190611834565b6112fa565b60405161044c929190611c7a565b60405180910390f35b34801561046157600080fd5b5061047c60048036038101906104779190611834565b61133b565b60405161048b93929190611ced565b60405180910390f35b3480156104a057600080fd5b506104a961140a565b6040516104b6919061163f565b60405180910390f35b6104d960048036038101906104d49190611e60565b611415565b005b6000600560003373ffffffffffffffffffffffffffffffffffffffff1673ffffffffffffffffffffffffffffffffffffffff16815260200190815260200160002060000154905090565b60026007540361056a576040517f08c379a000000000000000000000000000000000000000000000000000000000815260040161056190611ef5565b60405180910390fd5b60026007819055506000600560003373ffffffffffffffffffffffffffffffffffffffff1673ffffffffffffffffffffffffffffffffffffffff16815260200190815260200160002090508060020160009054906101000a900460ff16610606576040517f08c379a00000000000000000000000000000000000000000000000000000000081526004016105fd90611f61565b60405180910390fd5b603c816001015461061791906115fc565b421015610659576040517f08c379a000000000000000000000000000000000000000000000000000000000815260040161065090611fcd565b60405180910390fd5b60003373ffffffffffffffffffffffffffffffffffffffff1682600001546040516106839061201e565b60006040518083038185875af1925050503d80600081146106c0576040519150601f19603f3d011682016040523d82523d6000602084013e6106c5565b606091505b50509050600560003373ffffffffffffffffffffffffffffffffffffffff1673ffffffffffffffffffffffffffffffffffffffff16815260200190815260200160002060008082016000905560018201600090556002820160006101000a81549060ff021916905550508061076f576040517f08c379a00000000000000000000000000000000000000000000000000000000081526004016107669061207f565b60405180910390fd5b3373ffffffffffffffffffffffffffffffffffffffff167f1a39b9c5044b9f0ff56c5951e30c1ebe24911353aafcceb9250e83a24fe158c483600001546040516107b9919061163f565b60405180910390a250506001600781905550565b6060600360003373ffffffffffffffffffffffffffffffffffffffff1673ffffffffffffffffffffffffffffffffffffffff168152602001908152602001600020805480602002602001604051908101604052809291908181526020016000905b828210156108745783829060005260206000209060020201604051806040016040529081600082015481526020016001820154815250508152602001906001019061082e565b50505050905090565b60046020528060005260406000206000915090505481565b600260205281600052604060002081815481106108b157600080fd5b9060005260206000209060030201600091509150508060000154908060010160009054906101000a900473ffffffffffffffffffffffffffffffffffffffff16908060020154905083565b6060600260003373ffffffffffffffffffffffffffffffffffffffff1673ffffffffffffffffffffffffffffffffffffffff168152602001908152602001600020805480602002602001604051908101604052809291908181526020016000905b828210156109f95783829060005260206000209060030201604051806060016040529081600082015481526020016001820160009054906101000a900473ffffffffffffffffffffffffffffffffffffffff1673ffffffffffffffffffffffffffffffffffffffff1673ffffffffffffffffffffffffffffffffffffffff1681526020016002820154815250508152602001906001019061095d565b50505050905090565b6060600160003373ffffffffffffffffffffffffffffffffffffffff1673ffffffffffffffffffffffffffffffffffffffff168152602001908152602001600020805480602002602001604051908101604052809291908181526020016000905b82821015610b3b578382906000526020600020906003020160405180606001604052908160008201548152602001600182018054610aa0906120ce565b80601f0160208091040260200160405190810160405280929190818152602001828054610acc906120ce565b8015610b195780601f10610aee57610100808354040283529160200191610b19565b820191906000526020600020905b815481529060010190602001808311610afc57829003601f168201915b5050505050815260200160028201548152505081526020019060010190610a63565b50505050905090565b60056020528060005260406000206000915090508060000154908060010154908060020160009054906101000a900460ff16905083565b7f000000000000000000000000000000000000000000000000000000000000000081565b600260075403610be4576040517f08c379a0000000000000000000000000000000000000000000000000000000008152600401610bdb90611ef5565b60405180910390fd5b600260078190555080600460003373ffffffffffffffffffffffffffffffffffffffff1673ffffffffffffffffffffffffffffffffffffffff168152602001908152602001600020541015610c6e576040517f08c379a0000000000000000000000000000000000000000000000000000000008152600401610c659061214b565b60405180910390fd5b600560003373ffffffffffffffffffffffffffffffffffffffff1673ffffffffffffffffffffffffffffffffffffffff16815260200190815260200160002060020160009054906101000a900460ff1615610cfe576040517f08c379a0000000000000000000000000000000000000000000000000000000008152600401610cf5906121dd565b60405180910390fd5b60008111610d41576040517f08c379a0000000000000000000000000000000000000000000000000000000008152600401610d3890612249565b60405180910390fd5b80600460003373ffffffffffffffffffffffffffffffffffffffff1673ffffffffffffffffffffffffffffffffffffffff1681526020019081526020016000206000828254610d909190612269565b92505081905550604051806060016040528082815260200142815260200160011515815250600560003373ffffffffffffffffffffffffffffffffffffffff1673ffffffffffffffffffffffffffffffffffffffff168152602001908152602001600020600082015181600001556020820151816001015560408201518160020160006101000a81548160ff021916908315150217905550905050600360003373ffffffffffffffffffffffffffffffffffffffff1673ffffffffffffffffffffffffffffffffffffffff1681526020019081526020016000206040518060400160405280838152602001428152509080600181540180825580915050600190039060005260206000209060020201600090919091909150600082015181600001556020820151816001015550503373ffffffffffffffffffffffffffffffffffffffff167f24b91f4f47caf44230a57777a9be744924e82bf666f2d5702faf97df35e60f9f8242604051610f06929190611c7a565b60405180910390a2600160078190555050565b600260075403610f5e576040517f08c379a0000000000000000000000000000000000000000000000000000000008152600401610f5590611ef5565b60405180910390fd5b6002600781905550600073ffffffffffffffffffffffffffffffffffffffff168173ffffffffffffffffffffffffffffffffffffffff1603610fd5576040517f08c379a0000000000000000000000000000000000000000000000000000000008152600401610fcc906122e9565b60405180910390fd5b81600460003373ffffffffffffffffffffffffffffffffffffffff1673ffffffffffffffffffffffffffffffffffffffff168152602001908152602001600020541015611057576040517f08c379a000000000000000000000000000000000000000000000000000000000815260040161104e9061214b565b60405180910390fd5b6000821161109a576040517f08c379a000000000000000000000000000000000000000000000000000000000815260040161109190612355565b60405180910390fd5b81600460003373ffffffffffffffffffffffffffffffffffffffff1673ffffffffffffffffffffffffffffffffffffffff1681526020019081526020016000206000828254039250508190555081600460008373ffffffffffffffffffffffffffffffffffffffff1673ffffffffffffffffffffffffffffffffffffffff16815260200190815260200160002060008282540192505081905550600260003373ffffffffffffffffffffffffffffffffffffffff1673ffffffffffffffffffffffffffffffffffffffff16815260200190815260200160002060405180606001604052808481526020018373ffffffffffffffffffffffffffffffffffffffff1681526020014281525090806001815401808255809150506001900390600052602060002090600302016000909190919091506000820151816000015560208201518160010160006101000a81548173ffffffffffffffffffffffffffffffffffffffff021916908373ffffffffffffffffffffffffffffffffffffffff1602179055506040820151816002015550508073ffffffffffffffffffffffffffffffffffffffff163373ffffffffffffffffffffffffffffffffffffffff167f78e6250172d8e0a57d8d41f480f13581571a2d27bb2a93f5f7bd2511f5c22a6c84604051611287919061163f565b60405180910390a360016007819055505050565b60066020528060005260406000206000915090505481565b6000600460003373ffffffffffffffffffffffffffffffffffffffff1673ffffffffffffffffffffffffffffffffffffffff16815260200190815260200160002054905090565b6003602052816000526040600020818154811061131657600080fd5b9060005260206000209060020201600091509150508060000154908060010154905082565b6001602052816000526040600020818154811061135757600080fd5b906000526020600020906003020160009150915050806000015490806001018054611381906120ce565b80601f01602080910402602001604051908101604052809291908181526020018280546113ad906120ce565b80156113fa5780601f106113cf576101008083540402835291602001916113fa565b820191906000526020600020905b8154815290600101906020018083116113dd57829003601f168201915b5050505050908060020154905083565b662386f26fc1000081565b662386f26fc1000034101561145f576040517f08c379a0000000000000000000000000000000000000000000000000000000008152600401611456906123c1565b60405180910390fd5b6114688161146b565b50565b34600460003373ffffffffffffffffffffffffffffffffffffffff1673ffffffffffffffffffffffffffffffffffffffff16815260200190815260200160002060008282546114ba91906115fc565b92505081905550600160003373ffffffffffffffffffffffffffffffffffffffff1673ffffffffffffffffffffffffffffffffffffffff1681526020019081526020016000206040518060600160405280348152602001838152602001428152509080600181540180825580915050600190039060005260206000209060030201600090919091909150600082015181600001556020820151816001019081611563919061258d565b506040820151816002015550503373ffffffffffffffffffffffffffffffffffffffff167fe7db431dd1b2b791511a390e0471de01e7db3350767e8bfd1a48f2d23b33838434836040516115b892919061265f565b60405180910390a250565b6000819050919050565b7f4e487b7100000000000000000000000000000000000000000000000000000000600052601160045260246000fd5b6000611607826115c3565b9150611612836115c3565b925082820190508082111561162a576116296115cd565b5b92915050565b611639816115c3565b82525050565b60006020820190506116546000830184611630565b92915050565b600081519050919050565b600082825260208201905092915050565b6000819050602082019050919050565b61168f816115c3565b82525050565b6040820160008201516116ab6000850182611686565b5060208201516116be6020850182611686565b50505050565b60006116d08383611695565b60408301905092915050565b6000602082019050919050565b60006116f48261165a565b6116fe8185611665565b935061170983611676565b8060005b8381101561173a57815161172188826116c4565b975061172c836116dc565b92505060018101905061170d565b5085935050505092915050565b6000602082019050818103600083015261176181846116e9565b905092915050565b6000604051905090565b600080fd5b600080fd5b600073ffffffffffffffffffffffffffffffffffffffff82169050919050565b60006117a88261177d565b9050919050565b6117b88161179d565b81146117c357600080fd5b50565b6000813590506117d5816117af565b92915050565b6000602082840312156117f1576117f0611773565b5b60006117ff848285016117c6565b91505092915050565b611811816115c3565b811461181c57600080fd5b50565b60008135905061182e81611808565b92915050565b6000806040838503121561184b5761184a611773565b5b6000611859858286016117c6565b925050602061186a8582860161181f565b9150509250929050565b61187d8161179d565b82525050565b60006060820190506118986000830186611630565b6118a56020830185611874565b6118b26040830184611630565b949350505050565b600081519050919050565b600082825260208201905092915050565b6000819050602082019050919050565b6118ef8161179d565b82525050565b60608201600082015161190b6000850182611686565b50602082015161191e60208501826118e6565b5060408201516119316040850182611686565b50505050565b600061194383836118f5565b60608301905092915050565b6000602082019050919050565b6000611967826118ba565b61197181856118c5565b935061197c836118d6565b8060005b838110156119ad5781516119948882611937565b975061199f8361194f565b925050600181019050611980565b5085935050505092915050565b600060208201905081810360008301526119d4818461195c565b905092915050565b600081519050919050565b600082825260208201905092915050565b6000819050602082019050919050565b600081519050919050565b600082825260208201905092915050565b60005b83811015611a42578082015181840152602081019050611a27565b60008484015250505050565b6000601f19601f8301169050919050565b6000611a6a82611a08565b611a748185611a13565b9350611a84818560208601611a24565b611a8d81611a4e565b840191505092915050565b6000606083016000830151611ab06000860182611686565b5060208301518482036020860152611ac88282611a5f565b9150506040830151611add6040860182611686565b508091505092915050565b6000611af48383611a98565b905092915050565b6000602082019050919050565b6000611b14826119dc565b611b1e81856119e7565b935083602082028501611b30856119f8565b8060005b85811015611b6c5784840389528151611b4d8582611ae8565b9450611b5883611afc565b925060208a01995050600181019050611b34565b50829750879550505050505092915050565b60006020820190508181036000830152611b988184611b09565b905092915050565b60008115159050919050565b611bb581611ba0565b82525050565b6000606082019050611bd06000830186611630565b611bdd6020830185611630565b611bea6040830184611bac565b949350505050565b6000602082019050611c076000830184611874565b92915050565b600060208284031215611c2357611c22611773565b5b6000611c318482850161181f565b91505092915050565b60008060408385031215611c5157611c50611773565b5b6000611c5f8582860161181f565b9250506020611c70858286016117c6565b9150509250929050565b6000604082019050611c8f6000830185611630565b611c9c6020830184611630565b9392505050565b600082825260208201905092915050565b6000611cbf82611a08565b611cc98185611ca3565b9350611cd9818560208601611a24565b611ce281611a4e565b840191505092915050565b6000606082019050611d026000830186611630565b8181036020830152611d148185611cb4565b9050611d236040830184611630565b949350505050565b600080fd5b600080fd5b7f4e487b7100000000000000000000000000000000000000000000000000000000600052604160045260246000fd5b611d6d82611a4e565b810181811067ffffffffffffffff82111715611d8c57611d8b611d35565b5b80604052505050565b6000611d9f611769565b9050611dab8282611d64565b919050565b600067ffffffffffffffff821115611dcb57611dca611d35565b5b611dd482611a4e565b9050602081019050919050565b82818337600083830152505050565b6000611e03611dfe84611db0565b611d95565b905082815260208101848484011115611e1f57611e1e611d30565b5b611e2a848285611de1565b509392505050565b600082601f830112611e4757611e46611d2b565b5b8135611e57848260208601611df0565b91505092915050565b600060208284031215611e7657611e75611773565b5b600082013567ffffffffffffffff811115611e9457611e93611778565b5b611ea084828501611e32565b91505092915050565b7f5265656e7472616e637947756172643a207265656e7472616e742063616c6c00600082015250565b6000611edf601f83611ca3565b9150611eea82611ea9565b602082019050919050565b60006020820190508181036000830152611f0e81611ed2565b9050919050565b7f4e6f2070656e64696e672077697468647277616c730000000000000000000000600082015250565b6000611f4b601583611ca3565b9150611f5682611f15565b602082019050919050565b60006020820190508181036000830152611f7a81611f3e565b9050919050565b7f5769746864726177616c2064656c6179206e6f74206d65740000000000000000600082015250565b6000611fb7601883611ca3565b9150611fc282611f81565b602082019050919050565b60006020820190508181036000830152611fe681611faa565b9050919050565b600081905092915050565b50565b6000612008600083611fed565b915061201382611ff8565b600082019050919050565b600061202982611ffb565b9150819050919050565b7f5472616e73666572206661696c65640000000000000000000000000000000000600082015250565b6000612069600f83611ca3565b915061207482612033565b602082019050919050565b600060208201905081810360008301526120988161205c565b9050919050565b7f4e487b7100000000000000000000000000000000000000000000000000000000600052602260045260246000fd5b600060028204905060018216806120e657607f821691505b6020821081036120f9576120f861209f565b5b50919050565b7f696e73756666696369656e7420616d6f756e7400000000000000000000000000600082015250565b6000612135601383611ca3565b9150612140826120ff565b602082019050919050565b6000602082019050818103600083015261216481612128565b9050919050565b7f596f75206861766520746f20636c61696d2070726576696f757320776974686460008201527f7261772066697273740000000000000000000000000000000000000000000000602082015250565b60006121c7602983611ca3565b91506121d28261216b565b604082019050919050565b600060208201905081810360008301526121f6816121ba565b9050919050565b7f616d6f756e742073686f756c642062652067726561746572207468616e203000600082015250565b6000612233601f83611ca3565b915061223e826121fd565b602082019050919050565b6000602082019050818103600083015261226281612226565b9050919050565b6000612274826115c3565b915061227f836115c3565b9250828203905081811115612297576122966115cd565b5b92915050565b7f496e76616c696420726563697069656e74206164647265737300000000000000600082015250565b60006122d3601983611ca3565b91506122de8261229d565b602082019050919050565b60006020820190508181036000830152612302816122c6565b9050919050565b7f616d6f756e742073686f756c642062652067726561746572207468616e000000600082015250565b600061233f601d83611ca3565b915061234a82612309565b602082019050919050565b6000602082019050818103600083015261236e81612332565b9050919050565b7f6d757374206465706f73697420736f6d652062616c616e636500000000000000600082015250565b60006123ab601983611ca3565b91506123b682612375565b602082019050919050565b600060208201905081810360008301526123da8161239e565b9050919050565b60008190508160005260206000209050919050565b60006020601f8301049050919050565b600082821b905092915050565b6000600883026124437fffffffffffffffffffffffffffffffffffffffffffffffffffffffffffffffff82612406565b61244d8683612406565b95508019841693508086168417925050509392505050565b6000819050919050565b600061248a612485612480846115c3565b612465565b6115c3565b9050919050565b6000819050919050565b6124a48361246f565b6124b86124b082612491565b848454612413565b825550505050565b600090565b6124cd6124c0565b6124d881848461249b565b505050565b5b818110156124fc576124f16000826124c5565b6001810190506124de565b5050565b601f82111561254157612512816123e1565b61251b846123f6565b8101602085101561252a578190505b61253e612536856123f6565b8301826124dd565b50505b505050565b600082821c905092915050565b600061256460001984600802612546565b1980831691505092915050565b600061257d8383612553565b9150826002028217905092915050565b61259682611a08565b67ffffffffffffffff8111156125af576125ae611d35565b5b6125b982546120ce565b6125c4828285612500565b600060209050601f8311600181146125f757600084156125e5578287015190505b6125ef8582612571565b865550612657565b601f198416612605866123e1565b60005b8281101561262d57848901518255600182019150602085019450602081019050612608565b8683101561264a5784890151612646601f891682612553565b8355505b6001600288020188555050505b505050505050565b60006040820190506126746000830185611630565b81810360208301526126868184611cb4565b9050939250505056fea264697066735822122048955e42d5ab2c746d8daf2c387d97450a04827540a8c5d778519ba1da46c01b64736f6c63430008130033",
  "linkReferences": {},
  "deployedLinkReferences": {}
}